{
  "_format": "hh-sol-artifact-1",
  "contractName": "PropertyRegistry",
  "sourceName": "contracts/PropertyRegistry.sol",
  "abi": [
    {
      "anonymous": false,
      "inputs": [
        {
          "indexed": false,
          "internalType": "string",
          "name": "propertyId",
          "type": "string"
        },
        {
          "indexed": false,
          "internalType": "string",
          "name": "details",
          "type": "string"
        }
      ],
      "name": "MortgageAdded",
      "type": "event"
    },
    {
      "anonymous": false,
      "inputs": [
        {
          "indexed": false,
          "internalType": "string",
          "name": "propertyId",
          "type": "string"
        }
      ],
      "name": "MortgageRemoved",
      "type": "event"
    },
    {
      "anonymous": false,
      "inputs": [
        {
          "indexed": false,
          "internalType": "string",
          "name": "propertyId",
          "type": "string"
        },
        {
          "indexed": false,
          "internalType": "address",
          "name": "owner",
          "type": "address"
        },
        {
          "indexed": false,
          "internalType": "string",
          "name": "propertyType",
          "type": "string"
        }
      ],
      "name": "PropertyRegistered",
      "type": "event"
    },
    {
      "anonymous": false,
      "inputs": [
        {
          "indexed": false,
          "internalType": "string",
          "name": "propertyId",
          "type": "string"
        },
        {
          "indexed": false,
          "internalType": "string",
          "name": "status",
          "type": "string"
        }
      ],
      "name": "PropertyStatusChanged",
      "type": "event"
    },
    {
      "anonymous": false,
      "inputs": [
        {
          "indexed": false,
          "internalType": "string",
          "name": "propertyId",
          "type": "string"
        },
        {
          "indexed": false,
          "internalType": "address",
          "name": "from",
          "type": "address"
        },
        {
          "indexed": false,
          "internalType": "address",
          "name": "to",
          "type": "address"
        },
        {
          "indexed": false,
          "internalType": "uint256",
          "name": "value",
          "type": "uint256"
        }
      ],
      "name": "PropertyTransferred",
      "type": "event"
    },
    {
      "inputs": [
        {
          "internalType": "string",
          "name": "propertyId",
          "type": "string"
        },
        {
          "internalType": "string",
          "name": "details",
          "type": "string"
        }
      ],
      "name": "addMortgage",
      "outputs": [],
      "stateMutability": "nonpayable",
      "type": "function"
    },
    {
      "inputs": [],
      "name": "getAllProperties",
      "outputs": [
        {
          "internalType": "string[]",
          "name": "",
          "type": "string[]"
        }
      ],
      "stateMutability": "view",
      "type": "function"
    },
    {
      "inputs": [
        {
          "internalType": "string",
          "name": "propertyId",
          "type": "string"
        }
      ],
      "name": "getProperty",
      "outputs": [
        {
          "internalType": "string",
          "name": "registrationNumber",
          "type": "string"
        },
        {
          "internalType": "address",
          "name": "owner",
          "type": "address"
        },
        {
          "internalType": "string",
          "name": "description",
          "type": "string"
        },
        {
          "internalType": "string",
          "name": "propertyAddress",
          "type": "string"
        },
        {
          "internalType": "uint256",
          "name": "area",
          "type": "uint256"
        },
        {
          "internalType": "string",
          "name": "propertyType",
          "type": "string"
        },
        {
          "internalType": "string",
          "name": "status",
          "type": "string"
        },
        {
          "internalType": "uint256",
          "name": "lastTransferDate",
          "type": "uint256"
        },
        {
          "internalType": "bool",
          "name": "hasMortgage",
          "type": "bool"
        },
        {
          "internalType": "string",
          "name": "mortgageDetails",
          "type": "string"
        }
      ],
      "stateMutability": "view",
      "type": "function"
    },
    {
      "inputs": [
        {
          "internalType": "string",
          "name": "propertyId",
          "type": "string"
        }
      ],
      "name": "getTransferHistory",
      "outputs": [
        {
          "components": [
            {
              "internalType": "address",
              "name": "from",
              "type": "address"
            },
            {
              "internalType": "address",
              "name": "to",
              "type": "address"
            },
            {
              "internalType": "uint256",
              "name": "timestamp",
              "type": "uint256"
            },
            {
              "internalType": "string",
              "name": "reason",
              "type": "string"
            },
            {
              "internalType": "string",
              "name": "documentHash",
              "type": "string"
            },
            {
              "internalType": "string",
              "name": "notaryInfo",
              "type": "string"
            },
            {
              "internalType": "uint256",
              "name": "transferValue",
              "type": "uint256"
            },
            {
              "internalType": "string",
              "name": "paymentStatus",
              "type": "string"
            }
          ],
          "internalType": "struct PropertyRegistry.Transfer[]",
          "name": "",
          "type": "tuple[]"
        }
      ],
      "stateMutability": "view",
      "type": "function"
    },
    {
      "inputs": [
        {
          "internalType": "string",
          "name": "propertyId",
          "type": "string"
        },
        {
          "internalType": "string",
          "name": "registrationNumber",
          "type": "string"
        },
        {
          "internalType": "address",
          "name": "owner",
          "type": "address"
        },
        {
          "internalType": "string",
          "name": "description",
          "type": "string"
        },
        {
          "internalType": "string",
          "name": "propertyAddress",
          "type": "string"
        },
        {
          "internalType": "uint256",
          "name": "area",
          "type": "uint256"
        },
        {
          "internalType": "string",
          "name": "propertyType",
          "type": "string"
        }
      ],
      "name": "registerProperty",
      "outputs": [],
      "stateMutability": "nonpayable",
      "type": "function"
    },
    {
      "inputs": [
        {
          "internalType": "string",
          "name": "propertyId",
          "type": "string"
        }
      ],
      "name": "removeMortgage",
      "outputs": [],
      "stateMutability": "nonpayable",
      "type": "function"
    },
    {
      "inputs": [
        {
          "internalType": "string",
          "name": "propertyId",
          "type": "string"
        },
        {
          "internalType": "string",
          "name": "status",
          "type": "string"
        }
      ],
      "name": "setPropertyStatus",
      "outputs": [],
      "stateMutability": "nonpayable",
      "type": "function"
    },
    {
      "inputs": [
        {
          "internalType": "string",
          "name": "propertyId",
          "type": "string"
        },
        {
          "internalType": "address",
          "name": "newOwner",
          "type": "address"
        },
        {
          "internalType": "string",
          "name": "reason",
          "type": "string"
        },
        {
          "internalType": "string",
          "name": "documentHash",
          "type": "string"
        },
        {
          "internalType": "string",
          "name": "notaryInfo",
          "type": "string"
        },
        {
          "internalType": "uint256",
          "name": "transferValue",
          "type": "uint256"
        },
        {
          "internalType": "string",
          "name": "paymentStatus",
          "type": "string"
        }
      ],
      "name": "transferProperty",
      "outputs": [],
      "stateMutability": "nonpayable",
      "type": "function"
    }
  ],
  "bytecode": "0x608060405234801561001057600080fd5b50611e53806100206000396000f3fe608060405234801561001057600080fd5b50600436106100885760003560e01c80637b2cca7c1161005b5780637b2cca7c146100e65780638b6e8bcb14610106578063ab331a3414610119578063f3db79321461014257600080fd5b806310d00d7e1461008d5780631e8b0972146100a25780633d51402c146100b557806363f778bd146100d3575b600080fd5b6100a061009b3660046116b0565b610155565b005b6100a06100b036600461179c565b610597565b6100bd6106ae565b6040516100ca9190611850565b60405180910390f35b6100a06100e136600461179c565b610787565b6100f96100f43660046118b2565b610938565b6040516100ca91906118ef565b6100a06101143660046119ec565b610c36565b61012c6101273660046118b2565b610f52565b6040516100ca9a99989796959493929190611a5b565b6100a06101503660046118b2565b611423565b86336001600160a01b03166000826040516101709190611b09565b908152604051908190036020019020600201546001600160a01b0316146101b25760405162461bcd60e51b81526004016101a990611b25565b60405180910390fd5b8760006001600160a01b03166000826040516101ce9190611b09565b908152604051908190036020019020600201546001600160a01b0316036102075760405162461bcd60e51b81526004016101a990611b6b565b886000816040516102189190611b09565b9081526040519081900360200190206009015460ff161561027b5760405162461bcd60e51b815260206004820152601f60248201527f50726f70657274792068617320616e20616374697665206d6f7274676167650060448201526064016101a9565b6001600160a01b0389166102d15760405162461bcd60e51b815260206004820152601960248201527f496e76616c6964206e6577206f776e657220616464726573730000000000000060448201526064016101a9565b60408051808201825260078152662922a3aaa620a960c91b602090910152517f721013d6ef8ae1bdc32575c36351a1e47fe3154fd369444f865e47de2ef7e40090600090610320908d90611b09565b908152602001604051809103902060070160405161033e9190611bdc565b6040518091039020146103a35760405162461bcd60e51b815260206004820152602760248201527f50726f70657274792073746174757320646f6573206e6f7420616c6c6f7720746044820152663930b739b332b960c91b60648201526084016101a9565b6000808b6040516103b49190611b09565b908152604051908190036020018120600201546001600160a01b031691508a906000906103e2908e90611b09565b908152602001604051809103902060020160006101000a8154816001600160a01b0302191690836001600160a01b031602179055504260008c6040516104289190611b09565b90815260200160405180910390206008018190555060018b60405161044d9190611b09565b908152604080519182900360209081018320610100840183526001600160a01b0380861685528e811685840190815242948601948552606086018f8152608087018f905260a087018e905260c087018d905260e087018c9052835460018181018655600095865295909420875160089095020180549484166001600160a01b031995861617815591519482018054959093169490931693909317905591516002820155905160038201906105019082611ca1565b50608082015160048201906105169082611ca1565b5060a0820151600582019061052b9082611ca1565b5060c0820151600682015560e0820151600782019061054a9082611ca1565b5050507ff941a1ca8d1a22529c1133827aaac1a11678210c5aed825de4ee86c1c387281c8b828c896040516105829493929190611d61565b60405180910390a15050505050505050505050565b81336001600160a01b03166000826040516105b29190611b09565b908152604051908190036020019020600201546001600160a01b0316146105eb5760405162461bcd60e51b81526004016101a990611b25565b8260006001600160a01b03166000826040516106079190611b09565b908152604051908190036020019020600201546001600160a01b0316036106405760405162461bcd60e51b81526004016101a990611b6b565b826000856040516106519190611b09565b9081526020016040518091039020600701908161066e9190611ca1565b507ffde513ac409b43a167a248dd6d693f3f0677ed86d03b5b8ceb5e27a54df9a81f84846040516106a0929190611d97565b60405180910390a150505050565b60606002805480602002602001604051908101604052809291908181526020016000905b8282101561077e5783829060005260206000200180546106f190611ba2565b80601f016020809104026020016040519081016040528092919081815260200182805461071d90611ba2565b801561076a5780601f1061073f5761010080835404028352916020019161076a565b820191906000526020600020905b81548152906001019060200180831161074d57829003601f168201915b5050505050815260200190600101906106d2565b50505050905090565b81336001600160a01b03166000826040516107a29190611b09565b908152604051908190036020019020600201546001600160a01b0316146107db5760405162461bcd60e51b81526004016101a990611b25565b8260006001600160a01b03166000826040516107f79190611b09565b908152604051908190036020019020600201546001600160a01b0316036108305760405162461bcd60e51b81526004016101a990611b6b565b6000846040516108409190611b09565b9081526040519081900360200190206009015460ff16156108a35760405162461bcd60e51b815260206004820152601f60248201527f50726f706572747920616c7265616479206861732061206d6f7274676167650060448201526064016101a9565b60016000856040516108b59190611b09565b908152604051908190036020018120600901805492151560ff199093169290921790915583906000906108e9908790611b09565b9081526020016040518091039020600a0190816109069190611ca1565b507f5264c8ec764ed76697e635ed2c98edf43f9ec4c7d0aec0f66d92b8f121b838d184846040516106a0929190611d97565b606060018260405161094a9190611b09565b9081526020016040518091039020805480602002602001604051908101604052809291908181526020016000905b82821015610c2b57600084815260209081902060408051610100810182526008860290920180546001600160a01b039081168452600182015416938301939093526002830154908201526003820180549192916060840191906109da90611ba2565b80601f0160208091040260200160405190810160405280929190818152602001828054610a0690611ba2565b8015610a535780601f10610a2857610100808354040283529160200191610a53565b820191906000526020600020905b815481529060010190602001808311610a3657829003601f168201915b50505050508152602001600482018054610a6c90611ba2565b80601f0160208091040260200160405190810160405280929190818152602001828054610a9890611ba2565b8015610ae55780601f10610aba57610100808354040283529160200191610ae5565b820191906000526020600020905b815481529060010190602001808311610ac857829003601f168201915b50505050508152602001600582018054610afe90611ba2565b80601f0160208091040260200160405190810160405280929190818152602001828054610b2a90611ba2565b8015610b775780601f10610b4c57610100808354040283529160200191610b77565b820191906000526020600020905b815481529060010190602001808311610b5a57829003601f168201915b5050505050815260200160068201548152602001600782018054610b9a90611ba2565b80601f0160208091040260200160405190810160405280929190818152602001828054610bc690611ba2565b8015610c135780601f10610be857610100808354040283529160200191610c13565b820191906000526020600020905b815481529060010190602001808311610bf657829003601f168201915b50505050508152505081526020019060010190610978565b505050509050919050565b60006001600160a01b0316600088604051610c519190611b09565b908152604051908190036020019020600201546001600160a01b031614610cba5760405162461bcd60e51b815260206004820152601760248201527f50726f706572747920616c72656164792065786973747300000000000000000060448201526064016101a9565b6001600160a01b038516610d085760405162461bcd60e51b8152602060048201526015602482015274496e76616c6964206f776e6572206164647265737360581b60448201526064016101a9565b60008211610d475760405162461bcd60e51b815260206004820152600c60248201526b496e76616c6964206172656160a01b60448201526064016101a9565b604051806101600160405280888152602001878152602001866001600160a01b03168152602001858152602001848152602001838152602001828152602001604051806040016040528060078152602001662922a3aaa620a960c91b815250815260200142815260200160001515815260200160405180602001604052806000815250815250600088604051610ddd9190611b09565b90815260405190819003602001902081518190610dfa9082611ca1565b5060208201516001820190610e0f9082611ca1565b5060408201516002820180546001600160a01b0319166001600160a01b0390921691909117905560608201516003820190610e4a9082611ca1565b5060808201516004820190610e5f9082611ca1565b5060a0820151600582015560c08201516006820190610e7e9082611ca1565b5060e08201516007820190610e939082611ca1565b50610100820151600882015561012082015160098201805460ff1916911515919091179055610140820151600a820190610ecd9082611ca1565b5050600280546001810182556000919091527f405787fa12a823e0f2b7631cc41b3ba8828b3321ca811111fa75cd3aa3bb5ace019050610f0d8882611ca1565b507ff6d395ca84bfb4a29eac318d6f1eec71962a2a3a5d848822383ab08bf67c067c878683604051610f4193929190611dc5565b60405180910390a150505050505050565b60606000606080600060608060008060606000808c604051610f749190611b09565b908152602001604051809103902060405180610160016040529081600082018054610f9e90611ba2565b80601f0160208091040260200160405190810160405280929190818152602001828054610fca90611ba2565b80156110175780601f10610fec57610100808354040283529160200191611017565b820191906000526020600020905b815481529060010190602001808311610ffa57829003601f168201915b5050505050815260200160018201805461103090611ba2565b80601f016020809104026020016040519081016040528092919081815260200182805461105c90611ba2565b80156110a95780601f1061107e576101008083540402835291602001916110a9565b820191906000526020600020905b81548152906001019060200180831161108c57829003601f168201915b505050918352505060028201546001600160a01b031660208201526003820180546040909201916110d990611ba2565b80601f016020809104026020016040519081016040528092919081815260200182805461110590611ba2565b80156111525780601f1061112757610100808354040283529160200191611152565b820191906000526020600020905b81548152906001019060200180831161113557829003601f168201915b5050505050815260200160048201805461116b90611ba2565b80601f016020809104026020016040519081016040528092919081815260200182805461119790611ba2565b80156111e45780601f106111b9576101008083540402835291602001916111e4565b820191906000526020600020905b8154815290600101906020018083116111c757829003601f168201915b505050505081526020016005820154815260200160068201805461120790611ba2565b80601f016020809104026020016040519081016040528092919081815260200182805461123390611ba2565b80156112805780601f1061125557610100808354040283529160200191611280565b820191906000526020600020905b81548152906001019060200180831161126357829003601f168201915b5050505050815260200160078201805461129990611ba2565b80601f01602080910402602001604051908101604052809291908181526020018280546112c590611ba2565b80156113125780601f106112e757610100808354040283529160200191611312565b820191906000526020600020905b8154815290600101906020018083116112f557829003601f168201915b505050918352505060088201546020820152600982015460ff1615156040820152600a8201805460609092019161134890611ba2565b80601f016020809104026020016040519081016040528092919081815260200182805461137490611ba2565b80156113c15780601f10611396576101008083540402835291602001916113c1565b820191906000526020600020905b8154815290600101906020018083116113a457829003601f168201915b505050505081525050905080602001518160400151826060015183608001518460a001518560c001518660e001518761010001518861012001518961014001519a509a509a509a509a509a509a509a509a509a50509193959799509193959799565b80336001600160a01b031660008260405161143e9190611b09565b908152604051908190036020019020600201546001600160a01b0316146114775760405162461bcd60e51b81526004016101a990611b25565b8160006001600160a01b03166000826040516114939190611b09565b908152604051908190036020019020600201546001600160a01b0316036114cc5760405162461bcd60e51b81526004016101a990611b6b565b6000836040516114dc9190611b09565b9081526040519081900360200190206009015460ff1661153e5760405162461bcd60e51b815260206004820152601860248201527f50726f706572747920686173206e6f206d6f727467616765000000000000000060448201526064016101a9565b6000808460405161154f9190611b09565b908152602001604051809103902060090160006101000a81548160ff021916908315150217905550604051806020016040528060008152506000846040516115979190611b09565b9081526020016040518091039020600a0190816115b49190611ca1565b507f8100a21222e47d812ae62b95fc1e8bf784256e983ef2ce5951bf0ff67afc5a86836040516115e49190611e03565b60405180910390a1505050565b634e487b7160e01b600052604160045260246000fd5b600082601f83011261161857600080fd5b813567ffffffffffffffff80821115611633576116336115f1565b604051601f8301601f19908116603f0116810190828211818310171561165b5761165b6115f1565b8160405283815286602085880101111561167457600080fd5b836020870160208301376000602085830101528094505050505092915050565b80356001600160a01b03811681146116ab57600080fd5b919050565b600080600080600080600060e0888a0312156116cb57600080fd5b873567ffffffffffffffff808211156116e357600080fd5b6116ef8b838c01611607565b98506116fd60208b01611694565b975060408a013591508082111561171357600080fd5b61171f8b838c01611607565b965060608a013591508082111561173557600080fd5b6117418b838c01611607565b955060808a013591508082111561175757600080fd5b6117638b838c01611607565b945060a08a0135935060c08a013591508082111561178057600080fd5b5061178d8a828b01611607565b91505092959891949750929550565b600080604083850312156117af57600080fd5b823567ffffffffffffffff808211156117c757600080fd5b6117d386838701611607565b935060208501359150808211156117e957600080fd5b506117f685828601611607565b9150509250929050565b60005b8381101561181b578181015183820152602001611803565b50506000910152565b6000815180845261183c816020860160208601611800565b601f01601f19169290920160200192915050565b6000602080830181845280855180835260408601915060408160051b870101925083870160005b828110156118a557603f19888603018452611893858351611824565b94509285019290850190600101611877565b5092979650505050505050565b6000602082840312156118c457600080fd5b813567ffffffffffffffff8111156118db57600080fd5b6118e784828501611607565b949350505050565b60006020808301818452808551808352604092508286019150828160051b87010184880160005b838110156119de57888303603f19018552815180516001600160a01b03168452610100818901516001600160a01b038116868b0152508782015188860152606080830151828288015261196b83880182611824565b92505050608080830151868303828801526119868382611824565b9250505060a080830151868303828801526119a18382611824565b9250505060c080830151818701525060e080830151925085820381870152506119ca8183611824565b968901969450505090860190600101611916565b509098975050505050505050565b600080600080600080600060e0888a031215611a0757600080fd5b873567ffffffffffffffff80821115611a1f57600080fd5b611a2b8b838c01611607565b985060208a0135915080821115611a4157600080fd5b611a4d8b838c01611607565b975061171f60408b01611694565b6000610140808352611a6f8184018e611824565b6001600160a01b038d16602085015283810360408501529050611a92818c611824565b90508281036060840152611aa6818b611824565b905088608084015282810360a0840152611ac08189611824565b905082810360c0840152611ad48188611824565b90508560e0840152841515610100840152828103610120840152611af88185611824565b9d9c50505050505050505050505050565b60008251611b1b818460208701611800565b9190910192915050565b60208082526026908201527f4f6e6c7920746865206f776e65722063616e20706572666f726d20746869732060408201526530b1ba34b7b760d11b606082015260800190565b60208082526017908201527f50726f706572747920646f6573206e6f74206578697374000000000000000000604082015260600190565b600181811c90821680611bb657607f821691505b602082108103611bd657634e487b7160e01b600052602260045260246000fd5b50919050565b6000808354611bea81611ba2565b60018281168015611c025760018114611c1757611c46565b60ff1984168752821515830287019450611c46565b8760005260208060002060005b85811015611c3d5781548a820152908401908201611c24565b50505082870194505b50929695505050505050565b601f821115611c9c57600081815260208120601f850160051c81016020861015611c795750805b601f850160051c820191505b81811015611c9857828155600101611c85565b5050505b505050565b815167ffffffffffffffff811115611cbb57611cbb6115f1565b611ccf81611cc98454611ba2565b84611c52565b602080601f831160018114611d045760008415611cec5750858301515b600019600386901b1c1916600185901b178555611c98565b600085815260208120601f198616915b82811015611d3357888601518255948401946001909101908401611d14565b5085821015611d515787850151600019600388901b60f8161c191681555b5050505050600190811b01905550565b608081526000611d746080830187611824565b6001600160a01b0395861660208401529390941660408201526060015292915050565b604081526000611daa6040830185611824565b8281036020840152611dbc8185611824565b95945050505050565b606081526000611dd86060830186611824565b6001600160a01b03851660208401528281036040840152611df98185611824565b9695505050505050565b602081526000611e166020830184611824565b939250505056fea2646970667358221220b1763e77d242e2fa8f1a5a776d37f867248373287345682ea112db31bc89039664736f6c63430008130033",
  "linkReferences": {},
  "deployedLinkReferences": {}
}